:020000040800F2
:1000000038050020D9010008FB130008BD110008C5
:10001000F913000851040008291700080000000027
:10002000000000000000000000000000EB140008C9
:100030005304000800000000E914000859150008E6
:10004000F3010008F3010008F3010008F3010008C0
:10005000F3010008F3010008F3010008F3010008B0
:10006000F3010008F3010008F3010008F3010008A0
:10007000F3010008F3010008F3010008F301000890
:10008000F3010008F3010008F3010008F301000880
:10009000F3010008F3010008F3010008F301000870
:1000A000F3010008F3010008F3010008F301000860
:1000B000F3010008F3010008F3010008F301000850
:1000C000F3010008F3010008F3010008F301000840
:1000D000F3010008F3010008F3010008F301000830
:1000E000F3010008F3010008F3010008F301000820
:1000F000F3010008F3010008F3010008F301000810
:10010000F3010008F3010008F3010008F3010008FF
:10011000F3010008F3010008F3010008F3010008EF
:10012000F3010008F3010008F3010008F3010008DF
:10013000F30100080000000000000000F3010008C7
:10014000F3010008F3010008F3010008F3010008BF
:10015000F3010008F3010008F3010008F3010008AF
:10016000F3010008F3010008F3010008F30100089F
:10017000F3010008F3010008F3010008000000008B
:1001800000000000F3010008000000000000000073
:10019000F30100080000000000000000F301000867
:1001A000000000000000000000000000F301000853
:1001B000F3010008F3010008F3010008F30100084F
:1001C000F3010008DFF80CD000F07AF8004800478F
:1001D0006917000838050020064880470648004790
:1001E000FEE7FEE7FEE7FEE7FEE7FEE7FEE7FEE7E7
:1001F000FEE7FEE7E5150008C50100082DE9F05F00
:100200000546002092469B46884606468146402485
:100210001BE0284641464746224600F041F8534637
:100220005A46C01A914110D311461846224600F092
:1002300028F82D1A67EB01084F46224601200021BD
:1002400000F01FF817EB00094E41201EA4F1010435
:10025000DFDC484631462A464346BDE8F09FD2B22D
:1002600001E000F8012B491EFBD270470022F6E79F
:1002700010B513460A4604461946FFF7F0FF20461C
:1002800010BD202A04DB203A00FA02F1002070475A
:100290009140C2F1200320FA03F3194390407047C4
:1002A000202A04DB203A21FA02F00021704721FACB
:1002B00002F3D040C2F12002914008431946704732
:1002C000064C074D06E0E06840F0010394E80700A3
:1002D00098471034AC42F6D3FFF778FFA817000810
:1002E000C8170008464910B54A6822F440324A60EF
:1002F0004A6843681A434A6001684A6822F4807277
:100300004A6001684A68036942EA03224A60016858
:100310004A6822F040724A6001684A6883681A435A
:100320004A6001688A6822F400628A6001688A680B
:10033000C3681A438A60816A6FF07062D1420168B3
:100340008A6822F070628A6001688A680CD0836AC9
:100350001A438A6001688A6822F040528A60016804
:100360008A68C36A1A4301E022F040528A60016839
:100370008A6822F002028A6001688A68037E42EA83
:1003800043028A6090F82010002901684A680FD063
:1003900042F400624A6001684A6822F460424A609E
:1003A00001684A68174C436A04EB43331A4301E07F
:1003B00022F400624A600168CA6A22F47002CA62CA
:1003C0000168CA6A838B104C04EB03531A43CA6258
:1003D00001688A6822F400728A6001688A6890F86D
:1003E000303042EA43228A6001688A6822F48062DF
:1003F0008A6001688A68406942EA8020886010BD8E
:100400000023014000E0FFFF0000F0FF70B5012273
:100410000D4DD4032146284600F017FB0B4E012258
:100420002021304600F011FB4FF47A7000F022FAE0
:1004300000222021304600F008FB21462846BDE876
:100440007040002200F001BB0004024000000240A6
:10045000FEE770477047000078B50024009490F8DC
:100460003C20012A19D0012280F83C200A68072389
:100470000568092A13D9EE680A3A02EB4202934052
:100480009E43EE600B788A680A3B03EB43039A4075
:100490000368DD682A43DA6010E0022078BD2E6927
:1004A00002EB420293409E432E610B788A6803EB75
:1004B00043039A4003681D692A431A614A681F234F
:1004C000072A13D205686E6B521E02EB820293401C
:1004D0009E436E630A8893B20A79521E02EB82022F
:1004E00093400268556B2B43536327E005680D2A40
:1004F00012D22E6BD21F02EB820293409E432E63D8
:100500000B790A88DB1F92B203EB83039A400368DE
:100510001D6B2A431A6311E0EE6A0D3A02EB820268
:1005200093409E43EE620B790A880D3B92B203EB37
:1005300083039A400368DD6A2A43DA621B4B05682D
:10054000194A9D420AD10D68122D07D1556825F42C
:1005500000055560556845F48005556005689D4265
:100560001DD1134D0B68AB4201D0112B17D153682D
:1005700023F480035360536843F400035360096815
:10058000A9420CD10B490C4A0968B1FBF2F101EB0D
:100590008101490000E0491E00910029FBD180F84B
:1005A0003C40002078BD00000023014000200140B5
:1005B000120000101C00002040420F000068C06CB8
:1005C000704770B504004FF0000503D0206C002682
:1005D00010B107E0012070BD204600F01DF86664F0
:1005E00084F83C60206CC00610D4206C20F4885045
:1005F00040F0020020642046FFF774FE6664206C21
:1006000020F0020040F00100206400E0012584F8A1
:100610003C60284670BD000070B586B004461421C9
:100620006846FFF723FE2A4A284E256800232849FA
:10063000143A03242748B54211D10D6845F480755A
:100640000D60096801F480710591116841F00401A1
:100650001160116801F004010591012130E01E4E86
:10066000B54219D1086840F400700860086800F4C9
:1006700000700590106840F0010010601068694635
:1006800000F0010005901020CDE90004029313480A
:1006900000F002F906B070BD114EB542FAD10D68F6
:1006A00045F480650D60096801F480610591116869
:1006B00041F004011160116801F00401059102216B
:1006C000CDE9001402936946E2E7000000200140F2
:1006D000443802400008024000210140000002406E
:1006E000002201402DE9F041044600680D46816872
:1006F0004FF0000749050BD58068C00508D5206C70
:1007000040F02000206484F83C700120BDE8F081B6
:1007100000F0A0F906460FE0681C0DD025B100F0EE
:1007200099F9801BA84207D9206C40F0040020648E
:1007300084F83C700320E9E7206800688007EBD567
:1007400021686FF012000860206C40F40070206493
:100750002068816811F0405F13D1217E89B9C16A98
:1007600011F4700F02D0806840050AD4206C20F488
:1007700080702064206CC00403D4206C40F0010021
:1007800020640020C2E7000018B50021009190F815
:100790003C20012A07D0012280F83C20026893689F
:1007A000DB0702D011E0022018BD936843F001037B
:1007B00093602A4A2A4B1268B2FBF3F202EB420220
:1007C00000E0521E0092002AFBD102689368DB070A
:1007D00041D0036C40F20164A34343F4807303648B
:1007E00053685B0505D5036C23F4005343F4805331
:1007F0000364036CDB0404D5436C23F006034364F9
:1008000000E0416480F83C1016496FF02203136049
:1008100049680068CA06144906D088421BD181681D
:1008200011F0405F13D016E08842F8D00F4A904292
:1008300003D1D1F80423D206F1D00D4A90420AD157
:10084000D1F8041301F01F011029E8D303E08168F7
:1008500041F080418160002018BD00001C00002094
:1008600040420F00002301400020014000210140D0
:100870000022014070B5044600F0ECF80546601C0B
:1008800002D004480078044400F0E4F8401BA04281
:10089000FAD370BD100000202DE9F84F00224FF070
:1008A000010803254FF00F0E0B6808FA02F42340ED
:1008B000A3426ED14E68012E05D0022E03D0112E18
:1008C00001D0122E12D186684FEA420C05FA0CF7BD
:1008D000BE43CF6807FA0CF7374387604668A643E4
:1008E0000C79C4F30014944034434460C668570044
:1008F00005FA07FC8C6826EA0C06BC403443C46049
:100900004C68022C01D0122C13D1D40800EB8404C3
:10091000A346D4F8209054074FEAD46A0EFA0AF698
:1009200029EA06090E6906FA0AF646EA0906CBF82C
:10093000206006680C7926EA0C0604F00304BC402B
:10094000344304604C68E40060D5334C266846F4B8
:1009500080462660246822F0030604F48044009454
:100960002E4C3444A446D4F808489607370F0EFAA4
:1009700007F6B4432A4EB04201D100261FE0294EAB
:10098000B04201D101261AE0274EB04202D1022620
:1009900015E03BE0254EB04201D103260FE0244E86
:1009A000B04201D104260AE0224EB04201D1052610
:1009B00005E0214EB04201D1062600E00726BE40E8
:1009C0002643CCF808681D4E34684F689C43FF03EB
:1009D00000D51C433460194E361D34684F689C4363
:1009E000BF0300D51C433460144E083634684F688A
:1009F0009C43FF0200D51C433460104E0C36346813
:100A00004F689C43BF0200D51C433460521C102A1F
:100A1000FFF44AAFBDE8F88F44380240003001408F
:100A2000000002400004024000080240000C0240A6
:100A3000001002400014024000180240003C014037
:100A40000069084000D0012070470AB181617047F9
:100A50000904FBE70148806870470000100000208F
:100A600002488168027811448160704710000020BC
:100A70000B4810B5016841F400710160016841F450
:100A800080610160016841F480710160032000F021
:100A900063F8002000F006F800F024F8002010BDF4
:100AA000003C024070B50D4D04464FF47A71287831
:100AB000B1FBF0F00A490968B1FBF0F000F004FB6B
:100AC00048B9102C07D200222146501E00F024F80D
:100AD00000206C6070BD012070BD0000100000207F
:100AE0001C0000200B4882B0016841F48041016085
:100AF000006800F4804000900648001F016841F043
:100B000080510160006800F080500090072002B022
:100B100000F022B844380240F0B40E4B1B680C467B
:100B2000C3F30223C3F10705042D00D90425191DC1
:100B3000072901D2002300E0DB1E012606FA05F199
:100B4000491E214099409E40761E16403143F0BC1C
:100B500000F0EBBD0CED00E0064900F0070208686C
:100B60004FF6FF03184040EA0220034A1043086092
:100B7000704700000CED00E00000FA052DE9F04799
:100B80000E46050065D0DFF81481D8F80000F7B2F2
:100B900000F00F00B04207D288F80070D8F80000CB
:100BA00000F00F00B04254D128683D4C810712D5A7
:100BB000400703D5206840F4E05020602878000703
:100BC00003D5206840F4604020602068A96820F0C8
:100BD000F000084320602878C0072DD030496868AD
:100BE0000839012812D0022813D0032811D009682F
:100BF000890700292DDA216821F0030101432160D2
:100C0000FFF728FF814641F2883A0EE00968890320
:100C1000EFE709688901ECE7FFF71CFFA0EB09018A
:100C2000514502D90320BDE8F0872068696800F0CB
:100C30000C00B0EB810FEFD1D8F80010404601F066
:100C40000F01B14207D90770006800F00F00B042F1
:100C500001D00120E7E72878400705D52068E9683A
:100C600020F4E050084320602878000706D520686B
:100C7000296920F4604040EAC100206000F038F8A3
:100C80002168084AC1F30311515CC8400649086055
:100C900006480068FFF706FF0020C4E7003C02405A
:100CA000083802408E1700081C00002014000020A5
:100CB0000448054900680968044AC1F38221515C6F
:100CC000C84070471C000020083802409E170008EA
:100CD0000448054900680968044AC1F34231515C7F
:100CE000C84070471C000020083802409E170008CA
:100CF000224810B5006810F00C02214815D04110B0
:100D0000042A11D01D4C241F082A0FD00C2A0CD104
:100D10002268236802F03F025B0221D52068C0F3FD
:100D20008810A0FB010120E0084610BD226823685E
:100D300002F03F025B0205D52068C0F38810A0FBDB
:100D4000010104E02168C1F38811A1FB0001002327
:100D5000FFF754FA2168C1F30141491C49000AE038
:100D60002168C1F38811A1FB00010023FFF746FAB7
:100D70002168C1F30271B0FBF1F010BD08380240E8
:100D80000024F4002DE9F84F0546DFF828B3007879
:100D9000ABF10407C007A7F1040451D0DBF8001041
:100DA0005846C1F3810101290FD00168C1F38101C7
:100DB000022902D13968490207D40068C0F38100D2
:100DC000032809D13868400206D52068800337D54A
:100DD0006868002872D033E06868B0F5803F10D0B2
:100DE000B0F5A02F206810D020F48030206020685B
:100DF00020F4802020606868A8B1FFF72BFE06462B
:100E00000DE0206840F48030F4E740F4802020605A
:100E1000F7E700BFFFF71EFE801B642878D8206824
:100E20008003F7D50CE0FFF715FE064605E000BF8E
:100E3000FFF710FE801B6428F0D820688003F7D4E9
:100E40002878DFF8749280074FF0000A46D5DBF867
:100E50000010584611F00C0F0FD00168C1F381014A
:100E6000022902D13968490207D50068C0F3810020
:100E7000032809D13868400206D42068800715D5B8
:100E8000E86801281AD111E0E868C0B10120C9F86A
:100E90000000FFF7DFFD064605E000BFFFF7DAFDC3
:100EA000801B0228BAD820688007F7D520682969F6
:100EB00020F0F80040EAC10020600FE0F7E0C9F838
:100EC00000A0FFF7C7FD064605E000BFFFF7C2FD23
:100ED000801B02281CD820688007F7D428780007D8
:100EE00027D5DFF8D0817548696908F16C0881B1B0
:100EF00001210160FFF7AEFD064604E0FFF7AAFD01
:100F0000801B022804D8D8F800008007F6D510E02E
:100F100089E0C0F800A0FFF79DFD064605E000BF90
:100F2000FFF798FD801B02287DD8D8F800008007C5
:100F3000F6D42878400769D55E484FF0000838306D
:100F40000068C0000BD45B483830016841F0805124
:100F5000016000684FF0010800F080500090584E8A
:100F60003068C00511D4306840F480703060FFF7FD
:100F700071FD009006E000BFFFF76CFD0099401A7C
:100F8000022850D83068C005F6D54A4EA8686836A1
:100F900001280FD00528306810D020F00100306003
:100FA000306820F004003060A868B8B1FFF752FD47
:100FB00000900FE0306840F00100F4E740F00400DA
:100FC0003060F7E7FFF746FD0099411A41F288309B
:100FD000814264D830688007F4D50EE0FFF73AFD0F
:100FE000009007E0FFF736FD0099411A41F2883082
:100FF000814254D830688007F4D4B8F1000F05D08E
:101000002C483830016821F080510160A869A8B3EC
:10101000DBF80010C1F38101022948D00228C9F889
:1010200060A005D000E03AE0FFF714FD054639E086
:10103000FFF710FD064604E0FFF70CFD801B0228B9
:101040002DD820688001F7D4F5E907010843E96845
:101050001C4A490802EB0141AA6841EA821108438F
:10106000297C40EA0160297D40EA01703860012056
:10107000C9F86000FFF7EEFC054606E015E000BF8A
:10108000FFF7E8FC401B022809D820688001F7D54B
:101090000BE000BFFFF7DEFC401B022802D9032053
:1010A000BDE8F88F20688001F4D40020F8E7012023
:1010B000F6E700000838024000004742800E474231
:1010C000007000400000FFFF10B5401EB0F1807FAF
:1010D00001D3012010BD4FF0E02460610F216017A3
:1010E00000F023FB0020A06107202061002010BD3C
:1010F00070B5040004D094F83900002510B106E062
:10110000012070BD84F83850204600F023F82420D8
:1011100084F839002068C16821F40051C16020467C
:1011200000F06EFA2068016921F4904101612068A5
:10113000416921F02A0141612068C16841F40051F0
:10114000C160E563202084F8390084F83A0000206B
:1011500070BD000010B586B0044614216846FFF744
:1011600085F813492068884220D11248002102687E
:1011700042F400320260006800F4003005900D482F
:101180001038026842F001020260006800F00100BD
:1011900005900C2000900220CDE90101032003906E
:1011A0000720049069460448FFF776FB06B010BD9F
:1011B000004400404038024000000240FEE70000CA
:1011C0007FB50024154800940194029412490394B9
:1011D00001604FF48031C0E901140461047680F8A5
:1011E00020400F49C0E90A140125C561C46080F898
:1011F00030404561FFF7E5F908B1FFF72BF90A2008
:10120000CDE90005694602940448FFF725F9002856
:1012100001D0FFF71FF97FBD002001402000002012
:101220000100000F7FB5002415480094019402943A
:101230001249039401604FF48031C0E90114046144
:10124000047680F820400F49C0E90A140125C561E1
:10125000C46080F830404561FFF7B3F908B1FFF78B
:10126000F9F80420CDE90005694602940448FFF727
:10127000F3F8002801D0FFF7EDF87FBD0021014011
:10128000680000200100000F7FB50024154800947D
:10129000019402941249039401604FF48031C0E933
:1012A00001140461047680F820400F49C0E90A1453
:1012B0000125C561C46080F830404561FFF781F9C0
:1012C00008B1FFF7C7F80B20CDE900056946029485
:1012D0000448FFF7C1F8002801D0FFF7BBF87FBD35
:1012E00000220140B00000200100000F2DE9F04174
:1012F00086B014216846FEF7B9FF2C480024016827
:1013000041F004010160016801F0040105910168E8
:1013100041F080010160016801F0800105910168E0
:1013200041F001010160016801F0010105910168CE
:1013300041F00201016000681D4F00F002000590BD
:10134000002220213846FFF780FBDFF868804FF449
:101350000046002231464046FFF777FBB010009070
:101360001548CDE9010469461448FFF795FA202095
:1013700000900125CDE90154694638460394FFF7F2
:101380008BFA4FF4C040CDE9000469464046029410
:10139000FFF782FA0096CDE901546946404603946E
:1013A000FFF77AFA06B0BDE8F0810000303802405D
:1013B000000002400004024000002110000802402A
:1013C0000C4810B50A4901604FF4E1314160002139
:1013D00081600C22C160C0E904128161C161FFF724
:1013E00087FE002803D0BDE81040FFF733B810BDDA
:1013F00000440040F8000020FEE7704770B5364C0E
:1014000040F2DC554FF47A66206801280CD002289F
:1014100029D0032826D13148FFF7B6F901212F48FA
:10142000FFF760F970B331E02C48FFF7ADF9012107
:101430002A48FFF757F918B92848FFF7BFF8606046
:101440002748FFF7A1F901212548FFF74BF918B903
:101450002348FFF7B3F8A0606068B04237DAA068AD
:10146000A84234DA70BD1F48FFF78EF901211D48EC
:10147000FFF738F948BB1B48FFF7A0F8E060B0421F
:1014800025DA70BD1548FFF799F860601448FFF73A
:101490007BF901211248FFF725F918B91048FFF729
:1014A0008DF8A0600F48FFF76FF901210D48FFF795
:1014B00019F908B1606803E00A48FFF77FF8606037
:1014C000B04204DAA068A84201DAE068D7E7BDE8D4
:1014D0007040FEF79BBF00000000002020000020AD
:1014E000B000002068000020704770472DE9F041EF
:1014F000174D4FF4005631462846FFF7A1FA770002
:10150000144C012807D139462846FFF799FA0128DB
:1015100001D10320206031462846FFF791FA38B9FF
:1015200039462846FFF78CFA012801D102202060B5
:1015300031462846FFF784FA012807D13946284664
:10154000FFF77EFA002801D101202060BDE8F0817C
:101550000004024000000020FFF782BA30B593B0CB
:1015600034216846FEF782FE14210DA8FEF77EFEA8
:101570001A480025016841F080510160006800F0C0
:10158000805012901648016821F4404141F4804196
:1015900001600068022400F4404012900120039092
:1015A0001020009406940490CDE907504FF4A870E1
:1015B00009900420CDE90A0468460C94FFF7E2FB89
:1015C0000DA90F2081E83100E002CDE910050221CC
:1015D0000DA8FFF7D3FA13B030BD00004038024029
:1015E000007000400548016841F470010160034942
:1015F0004FF00060803908607047000088ED00E01F
:101600002DE9F041044600680169E26821F4405187
:10161000114301612169A068E269084361691143CE
:1016200008432168CA6849F20C639A430243CA60BE
:1016300020684169A26921F4407111434161E06968
:10164000192764253226B0F5004F354A3549206800
:101650004FF0000806D0884201D0904236D1FFF703
:1016600037FB35E0884201D0904202D1FFF730FBD2
:1016700001E0FFF71DFB61684A18A0FB070148EB7A
:101680000803FEF7BBFD0146B0FBF5F00201B1FB1C
:10169000F5F06FF01803584301EB800006EBC00033
:1016A000B0FBF5F000F0F80002EB4002B1FBF5F002
:1016B000584301EB800006EBC000B0FBF5F000F0F2
:1016C0000700216810448860BDE8F081FFF7F0FA58
:1016D00061688B0F8A00A0FB0701FEF78FFD0146B2
:1016E000B0FBF5F06FF01802504301EB800006EB01
:1016F0000010B0FBF5F000F0F002B1FBF5F002EBEA
:101700000012B1FBF5F06FF01803584301EB8000B5
:1017100006EB0010B0FBF5F000F00F00D1E7000081
:101720000014014000100140FEE70907090E0028DF
:1017300004DB00F1E02080F80014704700F00F0097
:1017400000F1E02080F8141D704702E008C8121F65
:1017500008C1002AFAD170477047002001E001C19A
:10176000121F002AFBD17047FFF782F9FFF7F6FE40
:10177000FFF7BCFDFFF724FDFFF722FEFFF752FD48
:10178000FFF782FDFFF7B2FEFFF738FEFAE7000031
:101790000000000000000102030406070809000021
:1017A0000000010203040000C81700080000002028
:1017B000200000004A170008E81700082000002059
:1017C000180500005A170008000000000000000083
:1017D00000000000000000000100000010000000F8
:0817E000000000000024F400E9
:04000005080001C529
:00000001FF
